{
  "_format": "hh-sol-artifact-1",
  "contractName": "PIAIC_ERC721",
  "sourceName": "contracts/erc721.sol",
  "abi": [
    {
      "inputs": [],
      "stateMutability": "nonpayable",
      "type": "constructor"
    },
    {
      "anonymous": false,
      "inputs": [
        {
          "indexed": true,
          "internalType": "address",
          "name": "owner",
          "type": "address"
        },
        {
          "indexed": true,
          "internalType": "address",
          "name": "approved",
          "type": "address"
        },
        {
          "indexed": true,
          "internalType": "uint256",
          "name": "tokenId",
          "type": "uint256"
        }
      ],
      "name": "Approval",
      "type": "event"
    },
    {
      "anonymous": false,
      "inputs": [
        {
          "indexed": true,
          "internalType": "address",
          "name": "owner",
          "type": "address"
        },
        {
          "indexed": true,
          "internalType": "address",
          "name": "operator",
          "type": "address"
        },
        {
          "indexed": false,
          "internalType": "bool",
          "name": "approved",
          "type": "bool"
        }
      ],
      "name": "ApprovalForAll",
      "type": "event"
    },
    {
      "anonymous": false,
      "inputs": [
        {
          "indexed": true,
          "internalType": "address",
          "name": "previousOwner",
          "type": "address"
        },
        {
          "indexed": true,
          "internalType": "address",
          "name": "newOwner",
          "type": "address"
        }
      ],
      "name": "OwnershipTransferred",
      "type": "event"
    },
    {
      "anonymous": false,
      "inputs": [
        {
          "indexed": true,
          "internalType": "address",
          "name": "from",
          "type": "address"
        },
        {
          "indexed": true,
          "internalType": "address",
          "name": "to",
          "type": "address"
        },
        {
          "indexed": true,
          "internalType": "uint256",
          "name": "tokenId",
          "type": "uint256"
        }
      ],
      "name": "Transfer",
      "type": "event"
    },
    {
      "inputs": [
        {
          "internalType": "address",
          "name": "to",
          "type": "address"
        },
        {
          "internalType": "uint256",
          "name": "tokenId",
          "type": "uint256"
        }
      ],
      "name": "approve",
      "outputs": [],
      "stateMutability": "nonpayable",
      "type": "function"
    },
    {
      "inputs": [
        {
          "internalType": "address",
          "name": "owner",
          "type": "address"
        }
      ],
      "name": "balanceOf",
      "outputs": [
        {
          "internalType": "uint256",
          "name": "",
          "type": "uint256"
        }
      ],
      "stateMutability": "view",
      "type": "function"
    },
    {
      "inputs": [],
      "name": "baseURI",
      "outputs": [
        {
          "internalType": "string",
          "name": "",
          "type": "string"
        }
      ],
      "stateMutability": "view",
      "type": "function"
    },
    {
      "inputs": [
        {
          "internalType": "uint256",
          "name": "quantity",
          "type": "uint256"
        }
      ],
      "name": "buyNft",
      "outputs": [],
      "stateMutability": "payable",
      "type": "function"
    },
    {
      "inputs": [
        {
          "internalType": "uint256",
          "name": "newPrice",
          "type": "uint256"
        }
      ],
      "name": "changeNFTPrice",
      "outputs": [],
      "stateMutability": "nonpayable",
      "type": "function"
    },
    {
      "inputs": [
        {
          "internalType": "uint256",
          "name": "tokenId",
          "type": "uint256"
        }
      ],
      "name": "getApproved",
      "outputs": [
        {
          "internalType": "address",
          "name": "",
          "type": "address"
        }
      ],
      "stateMutability": "view",
      "type": "function"
    },
    {
      "inputs": [
        {
          "internalType": "address",
          "name": "owner",
          "type": "address"
        },
        {
          "internalType": "address",
          "name": "operator",
          "type": "address"
        }
      ],
      "name": "isApprovedForAll",
      "outputs": [
        {
          "internalType": "bool",
          "name": "",
          "type": "bool"
        }
      ],
      "stateMutability": "view",
      "type": "function"
    },
    {
      "inputs": [],
      "name": "name",
      "outputs": [
        {
          "internalType": "string",
          "name": "",
          "type": "string"
        }
      ],
      "stateMutability": "view",
      "type": "function"
    },
    {
      "inputs": [],
      "name": "owner",
      "outputs": [
        {
          "internalType": "address",
          "name": "",
          "type": "address"
        }
      ],
      "stateMutability": "view",
      "type": "function"
    },
    {
      "inputs": [
        {
          "internalType": "uint256",
          "name": "tokenId",
          "type": "uint256"
        }
      ],
      "name": "ownerOf",
      "outputs": [
        {
          "internalType": "address",
          "name": "",
          "type": "address"
        }
      ],
      "stateMutability": "view",
      "type": "function"
    },
    {
      "inputs": [],
      "name": "renounceOwnership",
      "outputs": [],
      "stateMutability": "nonpayable",
      "type": "function"
    },
    {
      "inputs": [
        {
          "internalType": "address",
          "name": "from",
          "type": "address"
        },
        {
          "internalType": "address",
          "name": "to",
          "type": "address"
        },
        {
          "internalType": "uint256",
          "name": "tokenId",
          "type": "uint256"
        }
      ],
      "name": "safeTransferFrom",
      "outputs": [],
      "stateMutability": "nonpayable",
      "type": "function"
    },
    {
      "inputs": [
        {
          "internalType": "address",
          "name": "from",
          "type": "address"
        },
        {
          "internalType": "address",
          "name": "to",
          "type": "address"
        },
        {
          "internalType": "uint256",
          "name": "tokenId",
          "type": "uint256"
        },
        {
          "internalType": "bytes",
          "name": "_data",
          "type": "bytes"
        }
      ],
      "name": "safeTransferFrom",
      "outputs": [],
      "stateMutability": "nonpayable",
      "type": "function"
    },
    {
      "inputs": [],
      "name": "sale_Price",
      "outputs": [
        {
          "internalType": "uint256",
          "name": "",
          "type": "uint256"
        }
      ],
      "stateMutability": "view",
      "type": "function"
    },
    {
      "inputs": [],
      "name": "sale_end_date",
      "outputs": [
        {
          "internalType": "uint256",
          "name": "",
          "type": "uint256"
        }
      ],
      "stateMutability": "view",
      "type": "function"
    },
    {
      "inputs": [],
      "name": "sale_start_date",
      "outputs": [
        {
          "internalType": "uint256",
          "name": "",
          "type": "uint256"
        }
      ],
      "stateMutability": "view",
      "type": "function"
    },
    {
      "inputs": [
        {
          "internalType": "address",
          "name": "operator",
          "type": "address"
        },
        {
          "internalType": "bool",
          "name": "approved",
          "type": "bool"
        }
      ],
      "name": "setApprovalForAll",
      "outputs": [],
      "stateMutability": "nonpayable",
      "type": "function"
    },
    {
      "inputs": [
        {
          "internalType": "string",
          "name": "newUri",
          "type": "string"
        }
      ],
      "name": "setBaseUri",
      "outputs": [],
      "stateMutability": "nonpayable",
      "type": "function"
    },
    {
      "inputs": [],
      "name": "setSaleTime",
      "outputs": [],
      "stateMutability": "nonpayable",
      "type": "function"
    },
    {
      "inputs": [
        {
          "internalType": "bytes4",
          "name": "interfaceId",
          "type": "bytes4"
        }
      ],
      "name": "supportsInterface",
      "outputs": [
        {
          "internalType": "bool",
          "name": "",
          "type": "bool"
        }
      ],
      "stateMutability": "view",
      "type": "function"
    },
    {
      "inputs": [],
      "name": "symbol",
      "outputs": [
        {
          "internalType": "string",
          "name": "",
          "type": "string"
        }
      ],
      "stateMutability": "view",
      "type": "function"
    },
    {
      "inputs": [
        {
          "internalType": "uint256",
          "name": "tokenId",
          "type": "uint256"
        }
      ],
      "name": "tokenURI",
      "outputs": [
        {
          "internalType": "string",
          "name": "",
          "type": "string"
        }
      ],
      "stateMutability": "view",
      "type": "function"
    },
    {
      "inputs": [],
      "name": "total_Supply",
      "outputs": [
        {
          "internalType": "uint256",
          "name": "",
          "type": "uint256"
        }
      ],
      "stateMutability": "view",
      "type": "function"
    },
    {
      "inputs": [
        {
          "internalType": "address",
          "name": "from",
          "type": "address"
        },
        {
          "internalType": "address",
          "name": "to",
          "type": "address"
        },
        {
          "internalType": "uint256",
          "name": "tokenId",
          "type": "uint256"
        }
      ],
      "name": "transferFrom",
      "outputs": [],
      "stateMutability": "nonpayable",
      "type": "function"
    },
    {
      "inputs": [
        {
          "internalType": "address",
          "name": "newOwner",
          "type": "address"
        }
      ],
      "name": "transferOwnership",
      "outputs": [],
      "stateMutability": "nonpayable",
      "type": "function"
    }
  ],
  "bytecode": "0x6080604052600060075560006008556040518060400160405280602081526020017f68747470733a2f2f666c6f79646e66742e636f6d2f746f6b656e2f2671756f74815250600a90805190602001906200005b9291906200036a565b506064600c556000600d556064600e556040518060400160405280600e81526020017f4e46542041737369676e6d656e74000000000000000000000000000000000000815250600f9080519060200190620000b89291906200036a565b506040518060400160405280600a81526020017f50494149435f323032310000000000000000000000000000000000000000000081525060109080519060200190620001069291906200036a565b503480156200011457600080fd5b50600f805462000124906200041a565b80601f016020809104026020016040519081016040528092919081815260200182805462000152906200041a565b8015620001a35780601f106200017757610100808354040283529160200191620001a3565b820191906000526020600020905b8154815290600101906020018083116200018557829003601f168201915b505050505060108054620001b7906200041a565b80601f0160208091040260200160405190810160405280929190818152602001828054620001e5906200041a565b8015620002365780601f106200020a5761010080835404028352916020019162000236565b820191906000526020600020905b8154815290600101906020018083116200021857829003601f168201915b50505050506200025b6200024f6200029e60201b60201c565b620002a660201b60201c565b8160019080519060200190620002739291906200036a565b5080600290805190602001906200028c9291906200036a565b505050600e546009819055506200047f565b600033905090565b60008060009054906101000a900473ffffffffffffffffffffffffffffffffffffffff169050816000806101000a81548173ffffffffffffffffffffffffffffffffffffffff021916908373ffffffffffffffffffffffffffffffffffffffff1602179055508173ffffffffffffffffffffffffffffffffffffffff168173ffffffffffffffffffffffffffffffffffffffff167f8be0079c531659141344cd1fd0a4f28419497f9722a3daafe3b4186f6b6457e060405160405180910390a35050565b82805462000378906200041a565b90600052602060002090601f0160209004810192826200039c5760008555620003e8565b82601f10620003b757805160ff1916838001178555620003e8565b82800160010185558215620003e8579182015b82811115620003e7578251825591602001919060010190620003ca565b5b509050620003f79190620003fb565b5090565b5b8082111562000416576000816000905550600101620003fc565b5090565b600060028204905060018216806200043357607f821691505b602082108114156200044a576200044962000450565b5b50919050565b7f4e487b7100000000000000000000000000000000000000000000000000000000600052602260045260246000fd5b613418806200048f6000396000f3fe6080604052600436106101665760003560e01c806370a08231116100d1578063b88d4fde1161008a578063c87b56dd11610064578063c87b56dd146104f7578063e985e9c514610534578063edc4400a14610571578063f2fde38b1461059a57610166565b8063b88d4fde1461048c578063ba26d987146104b5578063c1d8dd98146104e057610166565b806370a0823114610390578063715018a6146103cd5780638da5cb5b146103e457806395d89b411461040f578063a0bcfc7f1461043a578063a22cb4651461046357610166565b8063243adbdd11610123578063243adbdd1461028d5780632682b11c146102a957806342842e0e146102d457806356f4b064146102fd5780636352211e146103285780636c0360eb1461036557610166565b806301ffc9a71461016b57806306fdde03146101a8578063081812fc146101d3578063095ea7b3146102105780631cad7a201461023957806323b872dd14610264575b600080fd5b34801561017757600080fd5b50610192600480360381019061018d919061230c565b6105c3565b60405161019f91906127bc565b60405180910390f35b3480156101b457600080fd5b506101bd6106a5565b6040516101ca91906127d7565b60405180910390f35b3480156101df57600080fd5b506101fa60048036038101906101f5919061239f565b610737565b6040516102079190612755565b60405180910390f35b34801561021c57600080fd5b50610237600480360381019061023291906122d0565b6107bc565b005b34801561024557600080fd5b5061024e6108d4565b60405161025b9190612a59565b60405180910390f35b34801561027057600080fd5b5061028b600480360381019061028691906121ca565b6108da565b005b6102a760048036038101906102a2919061239f565b61093a565b005b3480156102b557600080fd5b506102be610a7f565b6040516102cb9190612a59565b60405180910390f35b3480156102e057600080fd5b506102fb60048036038101906102f691906121ca565b610a85565b005b34801561030957600080fd5b50610312610aa5565b60405161031f9190612a59565b60405180910390f35b34801561033457600080fd5b5061034f600480360381019061034a919061239f565b610aab565b60405161035c9190612755565b60405180910390f35b34801561037157600080fd5b5061037a610b5d565b60405161038791906127d7565b60405180910390f35b34801561039c57600080fd5b506103b760048036038101906103b29190612165565b610beb565b6040516103c49190612a59565b60405180910390f35b3480156103d957600080fd5b506103e2610ca3565b005b3480156103f057600080fd5b506103f9610d2b565b6040516104069190612755565b60405180910390f35b34801561041b57600080fd5b50610424610d54565b60405161043191906127d7565b60405180910390f35b34801561044657600080fd5b50610461600480360381019061045c919061235e565b610de6565b005b34801561046f57600080fd5b5061048a60048036038101906104859190612294565b610e7c565b005b34801561049857600080fd5b506104b360048036038101906104ae9190612219565b610ffd565b005b3480156104c157600080fd5b506104ca61105f565b6040516104d79190612a59565b60405180910390f35b3480156104ec57600080fd5b506104f5611065565b005b34801561050357600080fd5b5061051e6004803603810190610519919061239f565b6110fd565b60405161052b91906127d7565b60405180910390f35b34801561054057600080fd5b5061055b6004803603810190610556919061218e565b6111a4565b60405161056891906127bc565b60405180910390f35b34801561057d57600080fd5b506105986004803603810190610593919061239f565b611238565b005b3480156105a657600080fd5b506105c160048036038101906105bc9190612165565b6112be565b005b60007f80ac58cd000000000000000000000000000000000000000000000000000000007bffffffffffffffffffffffffffffffffffffffffffffffffffffffff1916827bffffffffffffffffffffffffffffffffffffffffffffffffffffffff1916148061068e57507f5b5e139f000000000000000000000000000000000000000000000000000000007bffffffffffffffffffffffffffffffffffffffffffffffffffffffff1916827bffffffffffffffffffffffffffffffffffffffffffffffffffffffff1916145b8061069e575061069d826113b6565b5b9050919050565b6060600180546106b490612d09565b80601f01602080910402602001604051908101604052809291908181526020018280546106e090612d09565b801561072d5780601f106107025761010080835404028352916020019161072d565b820191906000526020600020905b81548152906001019060200180831161071057829003601f168201915b5050505050905090565b600061074282611420565b610781576040517f08c379a000000000000000000000000000000000000000000000000000000000815260040161077890612959565b60405180910390fd5b6005600083815260200190815260200160002060009054906101000a900473ffffffffffffffffffffffffffffffffffffffff169050919050565b60006107c782610aab565b90508073ffffffffffffffffffffffffffffffffffffffff168373ffffffffffffffffffffffffffffffffffffffff161415610838576040517f08c379a000000000000000000000000000000000000000000000000000000000815260040161082f906129f9565b60405180910390fd5b8073ffffffffffffffffffffffffffffffffffffffff1661085761148c565b73ffffffffffffffffffffffffffffffffffffffff16148061088657506108858161088061148c565b6111a4565b5b6108c5576040517f08c379a00000000000000000000000000000000000000000000000000000000081526004016108bc906128b9565b60405180910390fd5b6108cf8383611494565b505050565b60085481565b6108eb6108e561148c565b8261154d565b61092a576040517f08c379a000000000000000000000000000000000000000000000000000000000815260040161092190612a19565b60405180910390fd5b61093583838361162b565b505050565b600c54600d541115610981576040517f08c379a000000000000000000000000000000000000000000000000000000000815260040161097890612a39565b60405180910390fd5b426008541115610a25576000600d549050816009546109a09190612bc5565b34146109e1576040517f08c379a00000000000000000000000000000000000000000000000000000000081526004016109d890612939565b60405180910390fd5b60005b82811015610a175781806109f790612d6c565b925050610a043383611887565b8080610a0f90612d6c565b9150506109e4565b5080600d8190555050610a7c565b6000600781905550600060088190555060006007541415610a7b576040517f08c379a0000000000000000000000000000000000000000000000000000000008152600401610a72906129d9565b60405180910390fd5b5b50565b600b5481565b610aa083838360405180602001604052806000815250610ffd565b505050565b60095481565b6000806003600084815260200190815260200160002060009054906101000a900473ffffffffffffffffffffffffffffffffffffffff169050600073ffffffffffffffffffffffffffffffffffffffff168173ffffffffffffffffffffffffffffffffffffffff161415610b54576040517f08c379a0000000000000000000000000000000000000000000000000000000008152600401610b4b906128f9565b60405180910390fd5b80915050919050565b600a8054610b6a90612d09565b80601f0160208091040260200160405190810160405280929190818152602001828054610b9690612d09565b8015610be35780601f10610bb857610100808354040283529160200191610be3565b820191906000526020600020905b815481529060010190602001808311610bc657829003601f168201915b505050505081565b60008073ffffffffffffffffffffffffffffffffffffffff168273ffffffffffffffffffffffffffffffffffffffff161415610c5c576040517f08c379a0000000000000000000000000000000000000000000000000000000008152600401610c53906128d9565b60405180910390fd5b600460008373ffffffffffffffffffffffffffffffffffffffff1673ffffffffffffffffffffffffffffffffffffffff168152602001908152602001600020549050919050565b610cab61148c565b73ffffffffffffffffffffffffffffffffffffffff16610cc9610d2b565b73ffffffffffffffffffffffffffffffffffffffff1614610d1f576040517f08c379a0000000000000000000000000000000000000000000000000000000008152600401610d1690612979565b60405180910390fd5b610d2960006118ad565b565b60008060009054906101000a900473ffffffffffffffffffffffffffffffffffffffff16905090565b606060028054610d6390612d09565b80601f0160208091040260200160405190810160405280929190818152602001828054610d8f90612d09565b8015610ddc5780601f10610db157610100808354040283529160200191610ddc565b820191906000526020600020905b815481529060010190602001808311610dbf57829003601f168201915b5050505050905090565b610dee61148c565b73ffffffffffffffffffffffffffffffffffffffff16610e0c610d2b565b73ffffffffffffffffffffffffffffffffffffffff1614610e62576040517f08c379a0000000000000000000000000000000000000000000000000000000008152600401610e5990612979565b60405180910390fd5b80600a9080519060200190610e78929190611f89565b5050565b610e8461148c565b73ffffffffffffffffffffffffffffffffffffffff168273ffffffffffffffffffffffffffffffffffffffff161415610ef2576040517f08c379a0000000000000000000000000000000000000000000000000000000008152600401610ee990612879565b60405180910390fd5b8060066000610eff61148c565b73ffffffffffffffffffffffffffffffffffffffff1673ffffffffffffffffffffffffffffffffffffffff16815260200190815260200160002060008473ffffffffffffffffffffffffffffffffffffffff1673ffffffffffffffffffffffffffffffffffffffff16815260200190815260200160002060006101000a81548160ff0219169083151502179055508173ffffffffffffffffffffffffffffffffffffffff16610fac61148c565b73ffffffffffffffffffffffffffffffffffffffff167f17307eab39ab6107e8899845ad3d59bd9653f200f220920489ca2b5937696c3183604051610ff191906127bc565b60405180910390a35050565b61100e61100861148c565b8361154d565b61104d576040517f08c379a000000000000000000000000000000000000000000000000000000000815260040161104490612a19565b60405180910390fd5b61105984848484611971565b50505050565b60075481565b61106d61148c565b73ffffffffffffffffffffffffffffffffffffffff1661108b610d2b565b73ffffffffffffffffffffffffffffffffffffffff16146110e1576040517f08c379a00000000000000000000000000000000000000000000000000000000081526004016110d890612979565b60405180910390fd5b42600781905550601e426110f59190612b3e565b600881905550565b606061110882611420565b611147576040517f08c379a000000000000000000000000000000000000000000000000000000000815260040161113e906129b9565b60405180910390fd5b60006111516119cd565b90506000815111611171576040518060200160405280600081525061119c565b8061117b84611a5f565b60405160200161118c929190612731565b6040516020818303038152906040525b915050919050565b6000600660008473ffffffffffffffffffffffffffffffffffffffff1673ffffffffffffffffffffffffffffffffffffffff16815260200190815260200160002060008373ffffffffffffffffffffffffffffffffffffffff1673ffffffffffffffffffffffffffffffffffffffff16815260200190815260200160002060009054906101000a900460ff16905092915050565b61124061148c565b73ffffffffffffffffffffffffffffffffffffffff1661125e610d2b565b73ffffffffffffffffffffffffffffffffffffffff16146112b4576040517f08c379a00000000000000000000000000000000000000000000000000000000081526004016112ab90612979565b60405180910390fd5b8060098190555050565b6112c661148c565b73ffffffffffffffffffffffffffffffffffffffff166112e4610d2b565b73ffffffffffffffffffffffffffffffffffffffff161461133a576040517f08c379a000000000000000000000000000000000000000000000000000000000815260040161133190612979565b60405180910390fd5b600073ffffffffffffffffffffffffffffffffffffffff168173ffffffffffffffffffffffffffffffffffffffff1614156113aa576040517f08c379a00000000000000000000000000000000000000000000000000000000081526004016113a190612819565b60405180910390fd5b6113b3816118ad565b50565b60007f01ffc9a7000000000000000000000000000000000000000000000000000000007bffffffffffffffffffffffffffffffffffffffffffffffffffffffff1916827bffffffffffffffffffffffffffffffffffffffffffffffffffffffff1916149050919050565b60008073ffffffffffffffffffffffffffffffffffffffff166003600084815260200190815260200160002060009054906101000a900473ffffffffffffffffffffffffffffffffffffffff1673ffffffffffffffffffffffffffffffffffffffff1614159050919050565b600033905090565b816005600083815260200190815260200160002060006101000a81548173ffffffffffffffffffffffffffffffffffffffff021916908373ffffffffffffffffffffffffffffffffffffffff160217905550808273ffffffffffffffffffffffffffffffffffffffff1661150783610aab565b73ffffffffffffffffffffffffffffffffffffffff167f8c5be1e5ebec7d5bd14f71427d1e84f3dd0314c0f7b2291e5b200ac8c7c3b92560405160405180910390a45050565b600061155882611420565b611597576040517f08c379a000000000000000000000000000000000000000000000000000000000815260040161158e90612899565b60405180910390fd5b60006115a283610aab565b90508073ffffffffffffffffffffffffffffffffffffffff168473ffffffffffffffffffffffffffffffffffffffff16148061161157508373ffffffffffffffffffffffffffffffffffffffff166115f984610737565b73ffffffffffffffffffffffffffffffffffffffff16145b80611622575061162181856111a4565b5b91505092915050565b8273ffffffffffffffffffffffffffffffffffffffff1661164b82610aab565b73ffffffffffffffffffffffffffffffffffffffff16146116a1576040517f08c379a000000000000000000000000000000000000000000000000000000000815260040161169890612999565b60405180910390fd5b600073ffffffffffffffffffffffffffffffffffffffff168273ffffffffffffffffffffffffffffffffffffffff161415611711576040517f08c379a000000000000000000000000000000000000000000000000000000000815260040161170890612859565b60405180910390fd5b61171c838383611c0c565b611727600082611494565b6001600460008573ffffffffffffffffffffffffffffffffffffffff1673ffffffffffffffffffffffffffffffffffffffff16815260200190815260200160002060008282546117779190612c1f565b925050819055506001600460008473ffffffffffffffffffffffffffffffffffffffff1673ffffffffffffffffffffffffffffffffffffffff16815260200190815260200160002060008282546117ce9190612b3e565b92505081905550816003600083815260200190815260200160002060006101000a81548173ffffffffffffffffffffffffffffffffffffffff021916908373ffffffffffffffffffffffffffffffffffffffff160217905550808273ffffffffffffffffffffffffffffffffffffffff168473ffffffffffffffffffffffffffffffffffffffff167fddf252ad1be2c89b69c2b068fc378daa952ba7f163c4a11628f55a4df523b3ef60405160405180910390a4505050565b6118918282611c11565b600b60008154809291906118a490612d6c565b91905055505050565b60008060009054906101000a900473ffffffffffffffffffffffffffffffffffffffff169050816000806101000a81548173ffffffffffffffffffffffffffffffffffffffff021916908373ffffffffffffffffffffffffffffffffffffffff1602179055508173ffffffffffffffffffffffffffffffffffffffff168173ffffffffffffffffffffffffffffffffffffffff167f8be0079c531659141344cd1fd0a4f28419497f9722a3daafe3b4186f6b6457e060405160405180910390a35050565b61197c84848461162b565b61198884848484611ddf565b6119c7576040517f08c379a00000000000000000000000000000000000000000000000000000000081526004016119be906127f9565b60405180910390fd5b50505050565b6060600a80546119dc90612d09565b80601f0160208091040260200160405190810160405280929190818152602001828054611a0890612d09565b8015611a555780601f10611a2a57610100808354040283529160200191611a55565b820191906000526020600020905b815481529060010190602001808311611a3857829003601f168201915b5050505050905090565b60606000821415611aa7576040518060400160405280600181526020017f30000000000000000000000000000000000000000000000000000000000000008152509050611c07565b600082905060005b60008214611ad9578080611ac290612d6c565b915050600a82611ad29190612b94565b9150611aaf565b60008167ffffffffffffffff811115611b1b577f4e487b7100000000000000000000000000000000000000000000000000000000600052604160045260246000fd5b6040519080825280601f01601f191660200182016040528015611b4d5781602001600182028036833780820191505090505b5090505b60008514611c0057600182611b669190612c1f565b9150600a85611b759190612db5565b6030611b819190612b3e565b60f81b818381518110611bbd577f4e487b7100000000000000000000000000000000000000000000000000000000600052603260045260246000fd5b60200101907effffffffffffffffffffffffffffffffffffffffffffffffffffffffffffff1916908160001a905350600a85611bf99190612b94565b9450611b51565b8093505050505b919050565b505050565b600073ffffffffffffffffffffffffffffffffffffffff168273ffffffffffffffffffffffffffffffffffffffff161415611c81576040517f08c379a0000000000000000000000000000000000000000000000000000000008152600401611c7890612919565b60405180910390fd5b611c8a81611420565b15611cca576040517f08c379a0000000000000000000000000000000000000000000000000000000008152600401611cc190612839565b60405180910390fd5b611cd660008383611c0c565b6001600460008473ffffffffffffffffffffffffffffffffffffffff1673ffffffffffffffffffffffffffffffffffffffff1681526020019081526020016000206000828254611d269190612b3e565b92505081905550816003600083815260200190815260200160002060006101000a81548173ffffffffffffffffffffffffffffffffffffffff021916908373ffffffffffffffffffffffffffffffffffffffff160217905550808273ffffffffffffffffffffffffffffffffffffffff16600073ffffffffffffffffffffffffffffffffffffffff167fddf252ad1be2c89b69c2b068fc378daa952ba7f163c4a11628f55a4df523b3ef60405160405180910390a45050565b6000611e008473ffffffffffffffffffffffffffffffffffffffff16611f76565b15611f69578373ffffffffffffffffffffffffffffffffffffffff1663150b7a02611e2961148c565b8786866040518563ffffffff1660e01b8152600401611e4b9493929190612770565b602060405180830381600087803b158015611e6557600080fd5b505af1925050508015611e9657506040513d601f19601f82011682018060405250810190611e939190612335565b60015b611f19573d8060008114611ec6576040519150601f19603f3d011682016040523d82523d6000602084013e611ecb565b606091505b50600081511415611f11576040517f08c379a0000000000000000000000000000000000000000000000000000000008152600401611f08906127f9565b60405180910390fd5b805181602001fd5b63150b7a0260e01b7bffffffffffffffffffffffffffffffffffffffffffffffffffffffff1916817bffffffffffffffffffffffffffffffffffffffffffffffffffffffff191614915050611f6e565b600190505b949350505050565b600080823b905060008111915050919050565b828054611f9590612d09565b90600052602060002090601f016020900481019282611fb75760008555611ffe565b82601f10611fd057805160ff1916838001178555611ffe565b82800160010185558215611ffe579182015b82811115611ffd578251825591602001919060010190611fe2565b5b50905061200b919061200f565b5090565b5b80821115612028576000816000905550600101612010565b5090565b600061203f61203a84612a99565b612a74565b90508281526020810184848401111561205757600080fd5b612062848285612cc7565b509392505050565b600061207d61207884612aca565b612a74565b90508281526020810184848401111561209557600080fd5b6120a0848285612cc7565b509392505050565b6000813590506120b781613386565b92915050565b6000813590506120cc8161339d565b92915050565b6000813590506120e1816133b4565b92915050565b6000815190506120f6816133b4565b92915050565b600082601f83011261210d57600080fd5b813561211d84826020860161202c565b91505092915050565b600082601f83011261213757600080fd5b813561214784826020860161206a565b91505092915050565b60008135905061215f816133cb565b92915050565b60006020828403121561217757600080fd5b6000612185848285016120a8565b91505092915050565b600080604083850312156121a157600080fd5b60006121af858286016120a8565b92505060206121c0858286016120a8565b9150509250929050565b6000806000606084860312156121df57600080fd5b60006121ed868287016120a8565b93505060206121fe868287016120a8565b925050604061220f86828701612150565b9150509250925092565b6000806000806080858703121561222f57600080fd5b600061223d878288016120a8565b945050602061224e878288016120a8565b935050604061225f87828801612150565b925050606085013567ffffffffffffffff81111561227c57600080fd5b612288878288016120fc565b91505092959194509250565b600080604083850312156122a757600080fd5b60006122b5858286016120a8565b92505060206122c6858286016120bd565b9150509250929050565b600080604083850312156122e357600080fd5b60006122f1858286016120a8565b925050602061230285828601612150565b9150509250929050565b60006020828403121561231e57600080fd5b600061232c848285016120d2565b91505092915050565b60006020828403121561234757600080fd5b6000612355848285016120e7565b91505092915050565b60006020828403121561237057600080fd5b600082013567ffffffffffffffff81111561238a57600080fd5b61239684828501612126565b91505092915050565b6000602082840312156123b157600080fd5b60006123bf84828501612150565b91505092915050565b6123d181612c53565b82525050565b6123e081612c65565b82525050565b60006123f182612afb565b6123fb8185612b11565b935061240b818560208601612cd6565b61241481612ea2565b840191505092915050565b600061242a82612b06565b6124348185612b22565b9350612444818560208601612cd6565b61244d81612ea2565b840191505092915050565b600061246382612b06565b61246d8185612b33565b935061247d818560208601612cd6565b80840191505092915050565b6000612496603283612b22565b91506124a182612eb3565b604082019050919050565b60006124b9602683612b22565b91506124c482612f02565b604082019050919050565b60006124dc601c83612b22565b91506124e782612f51565b602082019050919050565b60006124ff602483612b22565b915061250a82612f7a565b604082019050919050565b6000612522601983612b22565b915061252d82612fc9565b602082019050919050565b6000612545602c83612b22565b915061255082612ff2565b604082019050919050565b6000612568603883612b22565b915061257382613041565b604082019050919050565b600061258b602a83612b22565b915061259682613090565b604082019050919050565b60006125ae602983612b22565b91506125b9826130df565b604082019050919050565b60006125d1602083612b22565b91506125dc8261312e565b602082019050919050565b60006125f4600f83612b22565b91506125ff82613157565b602082019050919050565b6000612617602c83612b22565b915061262282613180565b604082019050919050565b600061263a602083612b22565b9150612645826131cf565b602082019050919050565b600061265d602983612b22565b9150612668826131f8565b604082019050919050565b6000612680602f83612b22565b915061268b82613247565b604082019050919050565b60006126a3601983612b22565b91506126ae82613296565b602082019050919050565b60006126c6602183612b22565b91506126d1826132bf565b604082019050919050565b60006126e9603183612b22565b91506126f48261330e565b604082019050919050565b600061270c601b83612b22565b91506127178261335d565b602082019050919050565b61272b81612cbd565b82525050565b600061273d8285612458565b91506127498284612458565b91508190509392505050565b600060208201905061276a60008301846123c8565b92915050565b600060808201905061278560008301876123c8565b61279260208301866123c8565b61279f6040830185612722565b81810360608301526127b181846123e6565b905095945050505050565b60006020820190506127d160008301846123d7565b92915050565b600060208201905081810360008301526127f1818461241f565b905092915050565b6000602082019050818103600083015261281281612489565b9050919050565b60006020820190508181036000830152612832816124ac565b9050919050565b60006020820190508181036000830152612852816124cf565b9050919050565b60006020820190508181036000830152612872816124f2565b9050919050565b6000602082019050818103600083015261289281612515565b9050919050565b600060208201905081810360008301526128b281612538565b9050919050565b600060208201905081810360008301526128d28161255b565b9050919050565b600060208201905081810360008301526128f28161257e565b9050919050565b60006020820190508181036000830152612912816125a1565b9050919050565b60006020820190508181036000830152612932816125c4565b9050919050565b60006020820190508181036000830152612952816125e7565b9050919050565b600060208201905081810360008301526129728161260a565b9050919050565b600060208201905081810360008301526129928161262d565b9050919050565b600060208201905081810360008301526129b281612650565b9050919050565b600060208201905081810360008301526129d281612673565b9050919050565b600060208201905081810360008301526129f281612696565b9050919050565b60006020820190508181036000830152612a12816126b9565b9050919050565b60006020820190508181036000830152612a32816126dc565b9050919050565b60006020820190508181036000830152612a52816126ff565b9050919050565b6000602082019050612a6e6000830184612722565b92915050565b6000612a7e612a8f565b9050612a8a8282612d3b565b919050565b6000604051905090565b600067ffffffffffffffff821115612ab457612ab3612e73565b5b612abd82612ea2565b9050602081019050919050565b600067ffffffffffffffff821115612ae557612ae4612e73565b5b612aee82612ea2565b9050602081019050919050565b600081519050919050565b600081519050919050565b600082825260208201905092915050565b600082825260208201905092915050565b600081905092915050565b6000612b4982612cbd565b9150612b5483612cbd565b9250827fffffffffffffffffffffffffffffffffffffffffffffffffffffffffffffffff03821115612b8957612b88612de6565b5b828201905092915050565b6000612b9f82612cbd565b9150612baa83612cbd565b925082612bba57612bb9612e15565b5b828204905092915050565b6000612bd082612cbd565b9150612bdb83612cbd565b9250817fffffffffffffffffffffffffffffffffffffffffffffffffffffffffffffffff0483118215151615612c1457612c13612de6565b5b828202905092915050565b6000612c2a82612cbd565b9150612c3583612cbd565b925082821015612c4857612c47612de6565b5b828203905092915050565b6000612c5e82612c9d565b9050919050565b60008115159050919050565b60007fffffffff0000000000000000000000000000000000000000000000000000000082169050919050565b600073ffffffffffffffffffffffffffffffffffffffff82169050919050565b6000819050919050565b82818337600083830152505050565b60005b83811015612cf4578082015181840152602081019050612cd9565b83811115612d03576000848401525b50505050565b60006002820490506001821680612d2157607f821691505b60208210811415612d3557612d34612e44565b5b50919050565b612d4482612ea2565b810181811067ffffffffffffffff82111715612d6357612d62612e73565b5b80604052505050565b6000612d7782612cbd565b91507fffffffffffffffffffffffffffffffffffffffffffffffffffffffffffffffff821415612daa57612da9612de6565b5b600182019050919050565b6000612dc082612cbd565b9150612dcb83612cbd565b925082612ddb57612dda612e15565b5b828206905092915050565b7f4e487b7100000000000000000000000000000000000000000000000000000000600052601160045260246000fd5b7f4e487b7100000000000000000000000000000000000000000000000000000000600052601260045260246000fd5b7f4e487b7100000000000000000000000000000000000000000000000000000000600052602260045260246000fd5b7f4e487b7100000000000000000000000000000000000000000000000000000000600052604160045260246000fd5b6000601f19601f8301169050919050565b7f4552433732313a207472616e7366657220746f206e6f6e20455243373231526560008201527f63656976657220696d706c656d656e7465720000000000000000000000000000602082015250565b7f4f776e61626c653a206e6577206f776e657220697320746865207a65726f206160008201527f6464726573730000000000000000000000000000000000000000000000000000602082015250565b7f4552433732313a20746f6b656e20616c7265616479206d696e74656400000000600082015250565b7f4552433732313a207472616e7366657220746f20746865207a65726f2061646460008201527f7265737300000000000000000000000000000000000000000000000000000000602082015250565b7f4552433732313a20617070726f766520746f2063616c6c657200000000000000600082015250565b7f4552433732313a206f70657261746f7220717565727920666f72206e6f6e657860008201527f697374656e7420746f6b656e0000000000000000000000000000000000000000602082015250565b7f4552433732313a20617070726f76652063616c6c6572206973206e6f74206f7760008201527f6e6572206e6f7220617070726f76656420666f7220616c6c0000000000000000602082015250565b7f4552433732313a2062616c616e636520717565727920666f7220746865207a6560008201527f726f206164647265737300000000000000000000000000000000000000000000602082015250565b7f4552433732313a206f776e657220717565727920666f72206e6f6e657869737460008201527f656e7420746f6b656e0000000000000000000000000000000000000000000000602082015250565b7f4552433732313a206d696e7420746f20746865207a65726f2061646472657373600082015250565b7f496e76616c696420616d6f756e74210000000000000000000000000000000000600082015250565b7f4552433732313a20617070726f76656420717565727920666f72206e6f6e657860008201527f697374656e7420746f6b656e0000000000000000000000000000000000000000602082015250565b7f4f776e61626c653a2063616c6c6572206973206e6f7420746865206f776e6572600082015250565b7f4552433732313a207472616e73666572206f6620746f6b656e2074686174206960008201527f73206e6f74206f776e0000000000000000000000000000000000000000000000602082015250565b7f4552433732314d657461646174613a2055524920717565727920666f72206e6f60008201527f6e6578697374656e7420746f6b656e0000000000000000000000000000000000602082015250565b7f53616c65206469646e2774207374617274656420796574212000000000000000600082015250565b7f4552433732313a20617070726f76616c20746f2063757272656e74206f776e6560008201527f7200000000000000000000000000000000000000000000000000000000000000602082015250565b7f4552433732313a207472616e736665722063616c6c6572206973206e6f74206f60008201527f776e6572206e6f7220617070726f766564000000000000000000000000000000602082015250565b7f536f7272792c20546f6b656e204c696d69742045786365656473200000000000600082015250565b61338f81612c53565b811461339a57600080fd5b50565b6133a681612c65565b81146133b157600080fd5b50565b6133bd81612c71565b81146133c857600080fd5b50565b6133d481612cbd565b81146133df57600080fd5b5056fea26469706673582212209358905eece58696a3146d91bccb409dfd325ea4cdfc3512d12112cbf4ff4f5c64736f6c63430008040033",
  "linkReferences": {},
  "deployedLinkReferences": {}
}